{
  "contractName": "MyCoin",
  "abi": [
    {
      "constant": true,
      "inputs": [
        {
          "name": "",
          "type": "address"
        }
      ],
      "name": "contributorDetails",
      "outputs": [
        {
          "name": "userName",
          "type": "bytes32"
        },
        {
          "name": "tokensCount",
          "type": "uint256"
        }
      ],
      "payable": false,
      "stateMutability": "view",
      "type": "function"
    },
    {
      "constant": true,
      "inputs": [
        {
          "name": "",
          "type": "uint256"
        }
      ],
      "name": "contributorList",
      "outputs": [
        {
          "name": "",
          "type": "address"
        }
      ],
      "payable": false,
      "stateMutability": "view",
      "type": "function"
    },
    {
      "inputs": [],
      "payable": false,
      "stateMutability": "nonpayable",
      "type": "constructor"
    },
    {
      "constant": false,
      "inputs": [
        {
          "name": "contributorAdd",
          "type": "address"
        },
        {
          "name": "name",
          "type": "bytes32"
        },
        {
          "name": "taskName",
          "type": "uint256"
        }
      ],
      "name": "createContributor",
      "outputs": [],
      "payable": false,
      "stateMutability": "nonpayable",
      "type": "function"
    },
    {
      "constant": false,
      "inputs": [
        {
          "name": "contributorAdd",
          "type": "address"
        },
        {
          "name": "taskName",
          "type": "uint256"
        }
      ],
      "name": "addTask",
      "outputs": [],
      "payable": false,
      "stateMutability": "nonpayable",
      "type": "function"
    },
    {
      "constant": true,
      "inputs": [
        {
          "name": "_walletAdd",
          "type": "address"
        },
        {
          "name": "taskName",
          "type": "uint256"
        }
      ],
      "name": "isContributed",
      "outputs": [
        {
          "name": "",
          "type": "bool"
        }
      ],
      "payable": false,
      "stateMutability": "view",
      "type": "function"
    },
    {
      "constant": true,
      "inputs": [
        {
          "name": "_walletAdd",
          "type": "address"
        }
      ],
      "name": "validContributor",
      "outputs": [
        {
          "name": "",
          "type": "bool"
        }
      ],
      "payable": false,
      "stateMutability": "view",
      "type": "function"
    },
    {
      "constant": true,
      "inputs": [
        {
          "name": "contributorAdd",
          "type": "address"
        }
      ],
      "name": "getContributorDetails",
      "outputs": [
        {
          "name": "",
          "type": "bytes32"
        },
        {
          "name": "",
          "type": "uint256[]"
        },
        {
          "name": "",
          "type": "uint256"
        }
      ],
      "payable": false,
      "stateMutability": "view",
      "type": "function"
    },
    {
      "constant": false,
      "inputs": [
        {
          "name": "_to",
          "type": "address"
        }
      ],
      "name": "transfer",
      "outputs": [
        {
          "name": "",
          "type": "bool"
        }
      ],
      "payable": true,
      "stateMutability": "payable",
      "type": "function"
    }
  ],
  "bytecode": "0x608060405234801561001057600080fd5b507f6d756a7461626100000000000000000000000000000000000000000000000000600160003373ffffffffffffffffffffffffffffffffffffffff1673ffffffffffffffffffffffffffffffffffffffff1681526020019081526020016000206000018160001916905550611388600160003373ffffffffffffffffffffffffffffffffffffffff1673ffffffffffffffffffffffffffffffffffffffff16815260200190815260200160002060020181905550610a24806100d46000396000f30060806040526004361061008e576000357c0100000000000000000000000000000000000000000000000000000000900463ffffffff1680631a695230146100935780634c86208a146100e15780634d3329141461013c57806352ed3812146101a25780637325b3f1146102075780638dcd0676146102545780639f55579814610302578063fe9728b31461036f575b600080fd5b6100c7600480360381019080803573ffffffffffffffffffffffffffffffffffffffff1690602001909291905050506103ca565b604051808215151515815260200191505060405180910390f35b3480156100ed57600080fd5b50610122600480360381019080803573ffffffffffffffffffffffffffffffffffffffff1690602001909291905050506104cc565b604051808215151515815260200191505060405180910390f35b34801561014857600080fd5b5061017d600480360381019080803573ffffffffffffffffffffffffffffffffffffffff16906020019092919050505061056f565b6040518083600019166000191681526020018281526020019250505060405180910390f35b3480156101ae57600080fd5b506101ed600480360381019080803573ffffffffffffffffffffffffffffffffffffffff16906020019092919080359060200190929190505050610593565b604051808215151515815260200191505060405180910390f35b34801561021357600080fd5b50610252600480360381019080803573ffffffffffffffffffffffffffffffffffffffff16906020019092919080359060200190929190505050610676565b005b34801561026057600080fd5b50610295600480360381019080803573ffffffffffffffffffffffffffffffffffffffff1690602001909291905050506106e6565b60405180846000191660001916815260200180602001838152602001828103825284818151815260200191508051906020019060200280838360005b838110156102ec5780820151818401526020810190506102d1565b5050505090500194505050505060405180910390f35b34801561030e57600080fd5b5061032d60048036038101908080359060200190929190505050610898565b604051808273ffffffffffffffffffffffffffffffffffffffff1673ffffffffffffffffffffffffffffffffffffffff16815260200191505060405180910390f35b34801561037b57600080fd5b506103c8600480360381019080803573ffffffffffffffffffffffffffffffffffffffff1690602001909291908035600019169060200190929190803590602001909291905050506108d6565b005b600080600a905080600160003373ffffffffffffffffffffffffffffffffffffffff1673ffffffffffffffffffffffffffffffffffffffff168152602001908152602001600020600201541015151561042257600080fd5b80600160003373ffffffffffffffffffffffffffffffffffffffff1673ffffffffffffffffffffffffffffffffffffffff1681526020019081526020016000206002016000828254039250508190555080600160008573ffffffffffffffffffffffffffffffffffffffff1673ffffffffffffffffffffffffffffffffffffffff168152602001908152602001600020600201600082825401925050819055506001915050919050565b600080600090505b600080549050811015610564578273ffffffffffffffffffffffffffffffffffffffff1660008281548110151561050757fe5b9060005260206000200160009054906101000a900473ffffffffffffffffffffffffffffffffffffffff1673ffffffffffffffffffffffffffffffffffffffff1614156105575760019150610569565b80806001019150506104d4565b600091505b50919050565b60016020528060005260406000206000915090508060000154908060020154905082565b600080600080600160008773ffffffffffffffffffffffffffffffffffffffff1673ffffffffffffffffffffffffffffffffffffffff168152602001908152602001600020600101805490509250600160008773ffffffffffffffffffffffffffffffffffffffff1673ffffffffffffffffffffffffffffffffffffffff1681526020019081526020016000206001019150600090505b828110156106685784828281548110151561064157fe5b9060005260206000200154141561065b576001935061066d565b808060010191505061062a565b600093505b50505092915050565b600160008373ffffffffffffffffffffffffffffffffffffffff1673ffffffffffffffffffffffffffffffffffffffff1681526020019081526020016000206001018190806001815401808255809150509060018203906000526020600020016000909192909190915055505050565b6000606060008060606000600160008873ffffffffffffffffffffffffffffffffffffffff1673ffffffffffffffffffffffffffffffffffffffff168152602001908152602001600020600001549250600160008873ffffffffffffffffffffffffffffffffffffffff1673ffffffffffffffffffffffffffffffffffffffff168152602001908152602001600020600101805490506040519080825280602002602001820160405280156107aa5781602001602082028038833980820191505090505b509150600160008873ffffffffffffffffffffffffffffffffffffffff1673ffffffffffffffffffffffffffffffffffffffff16815260200190815260200160002060010180548060200260200160405190810160405280929190818152602001828054801561083957602002820191906000526020600020905b815481526020019060010190808311610825575b50505050509150600160008873ffffffffffffffffffffffffffffffffffffffff1673ffffffffffffffffffffffffffffffffffffffff1681526020019081526020016000206002015490508282829550955095505050509193909250565b6000818154811015156108a757fe5b906000526020600020016000915054906101000a900473ffffffffffffffffffffffffffffffffffffffff1681565b81600160008573ffffffffffffffffffffffffffffffffffffffff1673ffffffffffffffffffffffffffffffffffffffff1681526020019081526020016000206000018160001916905550600160008473ffffffffffffffffffffffffffffffffffffffff1673ffffffffffffffffffffffffffffffffffffffff16815260200190815260200160002060010181908060018154018082558091505090600182039060005260206000200160009091929091909150555060008390806001815401808255809150509060018203906000526020600020016000909192909190916101000a81548173ffffffffffffffffffffffffffffffffffffffff021916908373ffffffffffffffffffffffffffffffffffffffff160217905550505050505600a165627a7a72305820b6b5f39bf89c01f78be920f125b6a667883531b469ff33492b979e5b671f7c300029",
  "source": "pragma solidity ^0.4.2;\r\n\r\n/**\r\n * Simple Contract to save task \r\n * details on blockchain\r\n **/\r\ncontract MyCoin {\r\n    struct contributor {\r\n\t\tbytes32 userName;\r\n\t\tuint[] taskList;\r\n\t\tuint256 tokensCount;\r\n\t}\r\n\r\n    address[] public contributorList; // Array of contributors address\r\n\r\n    /* Mapping addresses to contributor object */\r\n    mapping (address => contributor) public contributorDetails;\r\n\r\n    /* Initializes contract with initial supply tokens to the creator of the contract */\r\n    constructor() public {\r\n        contributorDetails[msg.sender].userName = \"mujtaba\";\r\n        contributorDetails[msg.sender].tokensCount = 5000;\r\n    }\r\n\r\n    function createContributor(address contributorAdd, bytes32 name, uint taskName) public {\r\n        contributorDetails[contributorAdd].userName = name;\r\n        contributorDetails[contributorAdd].taskList.push(taskName);\r\n        contributorList.push(contributorAdd);\r\n    }\r\n    \r\n    function addTask(address contributorAdd, uint taskName) public {\r\n        contributorDetails[contributorAdd].taskList.push(taskName);\r\n    }\r\n\r\n    function isContributed(address _walletAdd, uint taskName) public view returns (bool){\r\n        uint arraySize = contributorDetails[_walletAdd].taskList.length;\r\n        uint[] storage taskArray = contributorDetails[_walletAdd].taskList;\r\n        for(uint i = 0; i < arraySize; i++){\r\n            if( taskArray[i] == taskName ){\r\n                return true;\r\n            }\r\n        }\r\n        return false;\r\n    }\r\n\r\n    function validContributor(address _walletAdd) public view returns (bool) {\r\n        for(uint i = 0; i < contributorList.length; i++){\r\n            if( contributorList[i] == _walletAdd )\r\n               return true;\r\n        }\r\n        return false;\r\n    }\r\n    \r\n    \r\n    function getContributorDetails(address contributorAdd) public view returns (bytes32, uint256[], uint256) {\r\n        bytes32 name = contributorDetails[contributorAdd].userName;\r\n        uint256[] memory taskList = new uint256[](contributorDetails[contributorAdd].taskList.length);\r\n        taskList = contributorDetails[contributorAdd].taskList;\r\n        uint256 token = contributorDetails[contributorAdd].tokensCount;\r\n        return(name, taskList, token);\r\n    }\r\n\r\n    function transfer(address _to) public payable returns (bool) {\r\n        uint256 _value=10;\r\n        require(contributorDetails[msg.sender].tokensCount >= _value);           // Check if the sender has enough\r\n        contributorDetails[msg.sender].tokensCount -= _value;                    // Subtract from the sender\r\n        contributorDetails[_to].tokensCount += _value;                           // Add the same to the recipient\r\n        return true;\r\n    }\r\n}",
  "sourcePath": "D:\\Documents\\New_Documents\\BlockChain\\Solidity\\AssignMentApp\\TokenContract\\contracts\\MyCoin.sol",
  "compiler": {
    "name": "solc",
    "version": "0.4.24+commit.e67f0147.Emscripten.clang"
  },
  "schemaVersion": "2.0.0",
  "updatedAt": "2018-06-23T15:13:49.215Z"
}